:020000040800F2
:10000000404800200D030008375A0008474E0008FA
:10001000355A00085D2B0008E9690008000000005F
:100020000000000000000000000000007502000851
:10003000732E000800000000B902000843620008A7
:1000400027030008270300082703000827030008E8
:1000500027030008270300082703000827030008D8
:1000600027030008270300082703000827030008C8
:10007000312E00083D2E0008270300082703000842
:1000800027030008270300082703000827030008A8
:100090002703000827030008270300082703000898
:1000A00027030008C962000827030008BD62000892
:1000B00027030008D562000827030008270300086B
:1000C0002703000827030008270300082703000868
:1000D000270300082703000827030008DD6900083C
:1000E00027030008270300082703000800F002F890
:1000F00000F0B0F80AA090E8000C82448344AAF112
:100100000107DA4501D100F0A5F8AFF2090EBAE80F
:100110000F0013F0010F18BFFB1A43F0010318473B
:10012000B8DC0000D8DC00000A444FF0000C10F8E6
:10013000013B13F0070408BF10F8014B1D1108BF65
:1001400010F8015B641E05D010F8016B641E01F805
:10015000016BF9D113F0080F1EBF10F8014BAD1C55
:100160000C1B09D16D1E58BF01F801CBFAD505E073
:1001700014F8016B01F8016B6D1EF9D59142D6D3CD
:10018000704700000023002400250026103A28BFF5
:1001900078C1FBD8520728BF30C148BF0B607047F9
:1001A0006E2900F09E84702900F0F78766290CF014
:1001B000D58065290CF0D28067290CF0CF806129A9
:1001C0000CF0CE8003681B0A28BF41F0800169292A
:1001D00000F03881642900F03581752900F0328102
:1001E0006F2900F08487782900F0C387E92900F09F
:1001F0001F87E42900F01C87F52900F01987EF29F3
:1002000000F08187F82900F0C2870368DB0928BF66
:1002100041F08001632901F08F82732901F09482FB
:10022000E32901F09F82F32901F0A48200207047A6
:100230001FB501F063F80400002000210AF0A8FFB8
:10024000401C6060002000210AF08CFFE0601FBDB0
:1002500010B510BD01F048FB1146FFF7E9FF08F0AB
:100260002BF801F0EBFD03B4FFF7F2FF03BC02F043
:1002700019F80000224B19680868B0E8F00F80F305
:100280000988BFF36F8F4FF0000080F311884EF0A4
:100290000D0E70470000000006480068006880F3FB
:1002A000088862B661B6BFF34F8FBFF36F8F00DF70
:1002B00000BF00BF08ED00E0EFF30980BFF36F8FD0
:1002C0000F4B1A6820E9F00F106008B54FF050008E
:1002D00080F31188BFF34F8FBFF36F8F0AF00CF8D4
:1002E0004FF0000080F31188BDE8084019680868E5
:1002F000B0E8F00F80F30988BFF36F8F704700BF3D
:10030000F8000020EFF3058070470000094880479F
:1003100009480047FEE7FEE7FEE7FEE7FEE7FEE7E7
:10032000FEE7FEE7FEE7FEE704480549054A064BFF
:1003300070470000B9620008ED000008404200204C
:1003400040480020404400204044002010B54C109C
:1003500084EA530404D54042C1F1000138BF491E6C
:100360001B4204D55242C3F1000338BF5B1E00F0AC
:10037000A2FA14F0804F04D04042C1F1000138BF0E
:10038000491E14F0004F04D05242C3F1000338BF9D
:100390005B1E10BD7CB51D4616460C00009001D0BA
:1003A0002044401E074B7B442A4669460190304654
:1003B00000F0BFFD05461CB10020694600F0CCFDF1
:1003C00028467CBDB90B00000FB41CB5084B06AA2B
:1003D0007B4469460090059800F0ABFD0446002080
:1003E000694600F0B9FD20461CBC5DF814FB000016
:1003F000850B000070B5044685690068C10601D50B
:10040000302600E02026C00707D070BDD4E90121C6
:1004100030469047206A401C20626D1EF6D570BDA4
:1004200070B5044685690078C00707D170BDD4E96E
:10043000012120209047206A401C20626D1EF6D5C5
:1004400070BD00002DE9F0410646002410687529B2
:10045000314616A510D000F0B0FA002802DA40426A
:1004600013A507E031688A0701D512A502E0490704
:1004700004D511A5012401E000F0A8FA00210A2208
:1004800006F1240709E0B0FBF2FCB0FBF2F302FB3B
:100490001C00303078541846491C0028F3D12346FC
:1004A0002A463046BDE8F04100F0C2BA0000000024
:1004B0002D0000002B000000200000002DE9F05F5F
:1004C000894604464FF0000ADFF874B1FB44C0F8D7
:1004D00020A02046E1688847002874D0252806D04F
:1004E000D4E901219047206A401C2062F1E70026F0
:1004F0005F462046E16888472028054607DB312D06
:1005000005D2781910F8200C08B10643F1E7B007BE
:1005100001D526F00406C4F81CA00027C4F818A0D2
:100520002A2D09D0284606F0E0FB38B304EB8708F3
:10053000303DC8F8185019E059F8041B204604EB68
:1005400087029161E1688847012F054618D1E0696B
:10055000002820DA26F020061DE0D8F8180000EB6D
:10056000800005EB40003038C8F818002046E168EC
:100570008847054606F0B9FB0028EED1012F0AD0C6
:100580002E2D08D12046E16888477F1C0546022FA2
:1005900046F02006C4DBA069002803DA404246F09A
:1005A0000106A061F00701D026F010066C2D0BD0DB
:1005B000682D09D04C2D39D06A2D35D0742D35D009
:1005C0007A2D33D016E038E0E1682F462046884780
:1005D000B842054609D16C2F26D04FF48060E168FF
:1005E000064320468847054604E06C2F1AD04FF496
:1005F000807006430DB3A5F14100192802D82035BB
:1006000046F400664A462946204626604E46FFF7D5
:10061000C7FD80B101280BD0F61D26F0070000F1C0
:10062000080956E74020E4E78020D8E70020D6E715
:1006300006F104094DE7284652E7206ABDE8F09F1D
:10064000AAD6000040EA010310B59B070FD1042A87
:100650000DD310C808C9121F9C42F8D020BA19BA8D
:10066000884201D9012010BD4FF0FF3010BD1AB1F2
:10067000D30703D0521C07E0002010BD10F8013B47
:1006800011F8014B1B1B07D110F8013B11F8014B6E
:100690001B1B01D1921EF1D1184610BD40EA010387
:1006A00070B59B072ED14FF00136042A2AD308C813
:1006B00010C99D1B9D43121F15EAC61517D0D8B24D
:1006C000E1B2401A50EA056110D198B2A1B2401AC5
:1006D00050EA05410AD123F07F4024F07F41401ABF
:1006E00050EA052102D1180EA0EB146070BDA342A0
:1006F000DBD018BA21BA884201D9012070BD4FF071
:10070000FF3070BD0AB9002070BD10F8013B11F830
:10071000014B63B1A3420AD1521E08D010F8013B2D
:1007200011F8014B1BB1A34201D1521EEDD1181B90
:1007300070BD032A40F2308010F0030C00F01580E9
:1007400011F8013BBCF1020F624498BF11F801CBD4
:1007500000F8013B38BF11F8013BA2F1040298BF39
:1007600000F801CB38BF00F8013B11F0030300F0A3
:100770007185083AC0F0088051F8043B083A51F8F6
:1007800004CBA0E80810F5E7121D5CBF51F8043B4C
:1007900040F8043BAFF30080D20724BF11F8013BBF
:1007A00011F801CB48BF11F8012B24BF00F8013B21
:1007B00000F801CB48BF00F8012B704701F0FF03A0
:1007C000114601B543EA032242EA024200F076FDF7
:1007D00001BD02F0FF0343EA032242EA024200F0B5
:1007E0006DBD4FF0000200B5134694469646203981
:1007F00022BFA0E80C50A0E80C50B1F12001BFF4DA
:10080000F7AF090728BFA0E80C5048BF0CC05DF83F
:1008100004EB890028BF40F8042B08BF704748BF8D
:1008200020F8022B11F0804F18BF00F8012B704701
:100830004FF0013C50F8042B51F8043B9A4221D16F
:10084000A2EB0C03934313EACC1317D150F8042BFB
:1008500051F8043B9A4215D1A2EB0C03934313EADF
:10086000CC130BD150F8042B51F8043B9A4209D118
:10087000A2EB0C03934313EACC13DBD04FF0000040
:10088000704700BFD01A01BAB1FA81F101F0180126
:1008900022FA01F0CB40C1F12001DBB2C0B2C01A94
:1008A0002CFA01F3D11A914311EAC311E6D1704732
:1008B00070477047704753EA020C00F069802DE9D9
:1008C000F04B4FF00006002B1FBFB3FA83F503FA7D
:1008D00005F424FA05F65E4012BF1643B2FA82F51B
:1008E00002FA05F4C5F120051EBF22FA05FC44EA10
:1008F0000C04203556EA044C4FEA144418BF641C1B
:100900004FF000084FF00009904271EB030C39D30F
:10091000002919BFB1FA81F701FA07F6B0FA80F79A
:1009200000FA07F6C7F120071EBF20FA07FC46EAC7
:100930000C062037B6FBF4FCA7EB0507103F07F0C9
:100940001F0BCBF120060CFA0BFB2CFA06F644BF6A
:10095000B3460026202FA4BF5E464FF0000B5BEA93
:10096000060C08BF4FF0010B19EB0B09ABFB027C27
:1009700048EB0608C01B06FB02CC0BFB03CC71EB5B
:100980000C01C1E70B46024641464846BDE8F08BE4
:1009900013B54FF000004FF00001AFF30080BDE849
:1009A0001C40704710B500F0ADFC006810BD10B5DC
:1009B000044600F0A7FC046010BD09684A0501D593
:1009C00040B27047C905FCD500B2704709684A05B6
:1009D00001D5C0B27047C905FCD580B2704770B56B
:1009E0000C460546012A05D02878800600D5EA691C
:1009F000002302E0012305E05B1C934202D2E05C8D
:100A00000028F9D1A869E618C01AA861286A184414
:100A100028622846FFF7EEFC04E0D5E9012114F82E
:100A2000010B9047B442F8D32846FFF7F9FC70BD9C
:100A30002DE9F0470D4699469246044600F12408F8
:100A40000168880604D5E06921F01001216000E00A
:100A50000120A84201DD471B00E00027A1697A19A7
:100A600002EB0900081AA0612078C00602D42046D3
:100A7000FFF7C0FC002608E0D4E901211AF80600BF
:100A80009047206A401C761C20624E45F4DB20789B
:100A9000C0060AD52046FFF7ADFC06E0D4E90121E7
:100AA00030209047206A401C2062381EA7F10107C1
:100AB000F4DC07E0D4E9012118F805009047206A2A
:100AC000401C2062281EA5F10105F3DC2046FFF73B
:100AD000A7FC2078000602D50220BDE8F08701209F
:100AE000FBE711680268006A530501D508700AE047
:100AF000D30501D5088006E0130603D5C217C1E966
:100B0000000200E008600120704770472DE9FF4FA8
:100B10000C461E464FF0FF378BB0D2E90001DDF8DE
:100B200060800A908A46C1F30A5505B93D46002106
:100B300008464FF00000BAF1000F00F4400005DA5B
:100B400000EB80004FF4400101EA50004FEA905959
:100B5000B9F1010F00DDB9460A9850EA4A000ED0FB
:100B600044F61050A5F2FF3545432F14B8F1000F9D
:100B70001ED07542291E1EDDC9F100021CE0B8F12D
:100B8000010F4FF0000001D0302103E0F24305E0F7
:100B90002154401CB042FBDB30460022002121548E
:100BA0000B99C1F80880C1E900200FB0BDE8F08FB3
:100BB000BD1B6D1CDEE74A4600DA694206A800F05C
:100BC000FDFD06AB93E8070003AB83E80700504642
:100BD0000A9901F08FFB8DE80700A0F500501F383F
:100BE00000900398002D0ADD42F21F014A46084496
:100BF000002303A90390684601F03AFE09E0A0F53E
:100C000000504A461F38002303A90390684601F0AC
:100C100059FE8DE807000004000C03D04FF0FF30B0
:100C2000410800E01046B8F1000F03D00022009206
:100C300015461EE0751E05D400F068FB3032625583
:100C40006D1EF9D5B3460122084302D000227F1C55
:100C500004E02078302801D100227F1E002A099765
:100C600084D01DE0112D07DA00F050FB30326255C0
:100C70006D1C50EA0102F5D1084302D00098C8B1BA
:100C80000EE00021681E05E0235C625C6354225480
:100C9000401E491C8142F7DBAB46A81B401E099051
:100CA000002004F80B000B98099AC0F80880C0E9EE
:100CB000002B7AE711264FF0000857E72DE9F04F97
:100CC00088460446D21D22F0070191B0D1E9000107
:100CD000CDE90A0105F004FF02460B98C00F01D0D0
:100CE0002D2007E02068810701D52B2002E020217C
:100CF00001EAC000032A099001D0072A05DB034658
:100D00004146204600F0CEFC0BE12078800601D55C
:100D1000E06900E00620B8F1650F814606D0B8F121
:100D2000660F18D0B8F1670F70D131E00020B9F12B
:100D3000110F009001DB112301E009F101030AAA60
:100D400001A90CA8FFF7E2FEDDE90C70002609F10D
:100D50000105834647E001204B4600904FF00047D5
:100D60000AAA01A90CA8FFF7D1FEDDE90DB00C9984
:100D70005D46002610B909F101000D18B9EB050018
:100D800003D4C0F1FF3609F10105A5EB09002BE002
:100D9000B9F1010F01DA4FF001090020B9F1110F8B
:100DA0000090484601DD112300E003460AAA01A98C
:100DB0000CA8FFF7ABFEDDE90C704D46002683461C
:100DC000207800070AD4AB4500DA5D4601A8012D62
:100DD00004DD411911F8011C302907D04F4502DA12
:100DE00017F1040F04DA012082460FE06D1EEEE7D2
:100DF000002F02DCED1B3E4403E0781CA84200DD1E
:100E00007D1CB81B00F1010A4FF000472078000755
:100E100003D4AA4501DB4FF0FF3A0021B7F1004FA0
:100E20000DF143088DF8431024D002202B23002F0E
:100E300001DA7F422D230A21021EA0F1010000DC0D
:100E40005FB197FBF1FC97FBF1F201FB1C7C1746AD
:100E50000CF1300C08F801CDEEE7A8F101000370A9
:100E60002188090501D5452100E06521A0F101088F
:100E700000F8011C09980FA9A1EB0807FF1D00B19C
:100E80000120411901EBEA70A1693844081A401E9B
:100E9000A0612078C00602D42046FFF7ABFA09987B
:100EA00028B1D4E901219047206A401C20622078B3
:100EB000C00622D52046FFF79DFA1EE0002E04DB77
:100EC000B34502DD01A8805D00E03020D4E90121B6
:100ED0009047206A401C2062761CAAF101005FEA5C
:100EE000000A0AD100F00AFAC0680168405CD4E93F
:100EF00001219047206A401C2062281EA5F10105AF
:100F0000DCDC07E0D4E9012118F8010B9047206AE6
:100F1000401C2062381EA7F10107F3DC2046FFF7D2
:100F20007FFA032011B041E601694A1C026108788A
:100F3000704700B58FB0CDE9013100210591054919
:100F40007944CDE9031011466846FFF7B7FA0FB0B0
:100F500000BD0000E5FFFFFF0A6802F8010B0A6010
:100F60007047D1E900239A4202D2531C0B601070E3
:100F7000704700002DE9FF5F15468A460446DFF8FA
:100F8000AC80F8440027D8E900103E46CDE90010B7
:100F900010E03AF816106A4602A800F081FC411CE5
:100FA00007D02178890603D5E269391891420DD816
:100FB0000744761C2078800602D5E069B84205DD3A
:100FC000AE42E6DB3AF816000028E2D1A069C01B69
:100FD000A0612046FFF70EFAD8E90010CDE9001015
:100FE000002017E03AF818106A4602A800F058FCF2
:100FF000B0F1FF3F81460BD000250DF1080B05E055
:10100000D4E901211BF8050090476D1C4D45F7D32D
:1010100008F10100B0428046E4DB206A38442062D7
:101020002046FFF7FDF9BDE8FF9F00005ACC000005
:101030002DE9F0418046D21D22F007020025D2E9B9
:101040000002F52915A614D0011E72F1000106DA7E
:101050000023D0EB030063EB020211A608E0D8F8EE
:1010600000108B0701D50FA602E0490701D50EA697
:1010700001251146002408F1240704E000F046F998
:1010800030323A55641C50EA0102F7D12B46324601
:1010900021464046BDE8F041FFF7CABC0000000011
:1010A0002D0000002B0000002000000030B40021C3
:1010B00000F1240408E002F00705D208303542EAC6
:1010C0004372DB086554491C52EA0305F3D10468F6
:1010D000002310A2250707D5A40600D421B1C469B6
:1010E00001230DA2641EC46130BCFFF7A1BC10B582
:1010F000044621461068FFF769FC02462046BDE819
:1011000010400023D2E7D21D22F00701D1E90023CD
:10111000CCE700000000000030000000F0B40D46F5
:101120000188090502D5214C7C4402E01F4C7C4417
:101130000E34002100F1240608E002F00F07120926
:10114000E75D42EA03721B097754491C52EA030720
:10115000F3D102780023120704D5702D06D009B10F
:10116000022311342246F0BCFFF762BC0123103485
:10117000F8E770B504460D4621461068FFF726FCD7
:10118000024629462046BDE870400023C6E7D21D2E
:1011900022F00703D3E90023C0E70368126843F095
:1011A000200303600823C3610023B7E7BCCA000023
:1011B0000FB4002300B589B00CA900910B99CB6046
:1011C000214B7B440693214B7B44079304236FF010
:1011D0000042CDE901321E4A7A446B46089202462B
:1011E00000200BF045F909B05DF814FB70B5064618
:1011F0004FF0FF3015460C46324686B00091CDE9DF
:10120000010169460020049004A8FFF7D1FF0246BF
:101210000498211825B108B1084600E0204628604E
:10122000049800280DD0002A02DD0098884208D0DA
:101230003246081B69460094CDE9010404A8FFF773
:10124000B7FF06B070BD0000B7050000CF05000075
:10125000BB01000010B5203AC0F00B80B1E8185077
:10126000203AA0E81850B1E81850A0E81850BFF490
:10127000F5AF5FEA027C24BFB1E81850A0E818502F
:1012800044BF18C918C0BDE810405FEA827C24BF83
:1012900051F8043B40F8043B08BF7047D20728BF11
:1012A00031F8023B48BF11F8012B28BF20F8023B60
:1012B00048BF00F8012B70474FF000020429C0F02E
:1012C000128010F0030C3FF48EAACCF1040CBCF198
:1012D000020F18BF00F8012BA8BF20F8022BA1EBCA
:1012E0000C01FFF780BA5FEAC17C24BF00F8012B34
:1012F00000F8012B48BF00F8012B704700487047E9
:101300000042002000487047E041002030B5B0F1B5
:101310000A024FEA900E71F100034EEA817EB0EBB3
:101320000E0061EB91014FEA101E4EEA017E10EBB8
:101330000E0041EB11114FEA102E4EEA016E10EB38
:101340000E0041EB11214FEA104E4EEA014E10EB18
:101350000E0041EB1141401841F100014FEAD0006D
:1013600040EA41704FEAD10110EB80054FEA810459
:1013700044EA907444EB01046D1944EB0404521BDD
:10138000A3414FF0000348BF0A3200D530BD401CD6
:1013900041F1000130BD10B5044600F0CBFA006801
:1013A000005D00F0010010BD2DE9F04F04460D4630
:1013B000D21D22F0070089B0D0E90097484639468F
:1013C00005F08EFB0246F80F01D02D2307E02068C0
:1013D000810701D52B2302E0202101EAC0038DF80B
:1013E00020300BB1012000E00020032A824601D00A
:1013F000072A04DB2946204600F054F93FE1207813
:10140000800601D40D2500E0E569C7F30A560D2DCD
:1014100049DA00214FEA175B08464FF00000002F21
:1014200000F4400007DA00EB80004FF4400100EBCD
:10143000D07001EA60008115012901DD4FF0FF3114
:1014400000224FEA850CBCF1180F06D31346ACF10D
:1014500018004FF08052C24003E04FF4801323FA8B
:101460000CF30CF10C0CBCF1200F04D3ACF1200CEC
:1014700009FA0CF001E007FA0CF000294FF00048DF
:1014800001DD18B90FE00ED140450CD319EB02096C
:101490005F4121B9404502D19F4329EA0209BBEBD4
:1014A000175F00D0761C2088000502D57B48784461
:1014B00002E07A487844193808AA302302F80A3042
:1014C000037C0AF10101002E0AF1020A53546A4614
:1014D00002DC4FF0300101E04FF031014FF0010824
:1014E0008DF8001002D0A6F2FF3603E059EA47015A
:1014F00000D06B4E002D02DC2178090704D54FF097
:1015000002082E218DF80110C44600210BE0C7F31C
:1015100003433F01C35C491C6D1E02F808300529D6
:1015200008F1010801DA002DF1DC00210CE000EBEC
:101530001973491C1B786D1E082902F808304FEA00
:10154000091908F1010801DA002DF0DC21688B0689
:1015500002D516E0A8F10108E04505DD02EB08031D
:1015600013F8013C302BF5D0B8F1000F09DD02EB88
:10157000080313F8013C2E2B03D1090701D4A8F16D
:101580000108002D05DD3E2102F808106D1E08F14E
:101590000108407C002E02F8080008F1010804DA76
:1015A0002D20764202F8080002E02B2002F8080005
:1015B0000A214FF47A70864208F101080BDB96FB92
:1015C000F0F3303302F8083096FBF0F308F101082D
:1015D00000FB136601E0642E0CDB642096FBF0F345
:1015E000303302F8083096FBF0F308F1010800FBF5
:1015F000136601E00A2E06DB96FBF1F0303002F8AC
:10160000080008F1010896FBF1F001FB1060303092
:1016100002F80800A16908F1010808EB050202EBD5
:101620000A00081AA0612078C00602D42046FEF7FE
:10163000E1FE216A08AE01EB0A00206204E0D4E971
:10164000012116F8010B9047BAF1010AF7D2207870
:10165000C00602D52046FEF7CDFE6E4609E016F81C
:10166000010B3E280FD0D4E901219047206A401C8D
:101670002062B8F10108F2D22046FEF7D1FE09B08F
:101680000320BDE8F08F206A2844206203E0D4E9FB
:101690000121302090476D1EEBD3F8E711C8000000
:1016A00002FCFFFF2DE9F0411F46044603260168B6
:1016B000072A01F4006004DB08B116A505E016A5B1
:1016C00003E008B115A500E015A521F01000206089
:1016D000A069C01EA0610FB1401EA0612046FEF7A8
:1016E00089FE4FB1D4E9012138469047206A401C59
:1016F0002062C01C206206E0206AFAE7D4E90121DA
:1017000015F8010B9047761EF8D22046FEF788FEAA
:10171000BDE8F0814E414E006E616E00494E4600BC
:10172000696E660010B5436913B1AFF3008001E044
:10173000FFF755F9012010BD127800F124010A705D
:1017400000224A700122EDE711684FF0FF32E9E70D
:1017500010B5436913B1AFF3008001E0FFF70AFC55
:10176000012010BD128800F1240182840022C2846D
:101770000122EDE711684FF0FF32E9E7426842B11C
:10178000016811F8013B23B1521EC0E9001218464E
:1017900070470121C160881E704742685AB1C36812
:1017A000016843B983688B4205D0491E521CC0E9C9
:1017B0000012002070474FF0FF3070472DE9F047CE
:1017C000814616468AB0354878440DC88DE80D002C
:1017D00032487844801C03AC0DC884E80D0041F603
:1017E0009B300844372190FBF1F290FBF1F5A5F115
:1017F000800501FB12041B3C02D56442012000E07D
:101800000020DFF898A080460027FA44AAF1BE0A1B
:101810000EE0E0070AD03246684607EB4701012395
:101820000AEB810101F04EF88DE8070064107F1C7F
:10183000002CEED1194F7F44AE3F19E0E80715D0D8
:1018400007EB04100DF1180A90E80E008AE80E006C
:10185000C068F04201D1981908903246012306A9C8
:1018600003A801F02FF803AB83E807006D10641C98
:10187000002DE3D14FF0010332466946B8F1000F65
:1018800003A802D000F0F4FF01E001F01BF8C9E961
:101890000001C9F808200AB0BDE8F08788C500003B
:1018A00070B516460C46054600F044F8036893F8F8
:1018B0000101012806D0FF2C0FD8185D68B1012066
:1018C0002C7070BDD3F807013246214603F207138E
:1018D00003442846BDE8704018474FF0FF3070BD04
:1018E00000487047E04100207546FFF7F9FFAE461B
:1018F00005006946534620F00700854618B020B51C
:10190000FEF712FDBDE820404FF000064FF0000743
:101910004FF000084FF0000B21F00701AC46ACE897
:10192000C009ACE8C009ACE8C009ACE8C0098D4604
:101930007047000010B5FFF7E1FC001D10BD00BFAF
:10194000519800002DE9FF4F06468BB00878FF281C
:1019500006D0491C2D2805D000244FF0000908E0CE
:1019600000200CE00124F8E709EB8903491C00EB97
:1019700043090878FF28F7D114B1C9F10000814666
:10198000107800252C46AA4629462D2801D02B2860
:1019900004D1521C2D2813D0002082468B4610788B
:1019A000FF280FD04FF0000C0A21521CA5FB017834
:1019B00004FB018105FB0C11C5194BEB0104EEE79B
:1019C0000120EAE7002108464FF00000BAF1000FBD
:1019D00002D000EB80004008C0F38157012F01DDE9
:1019E0004FF0FF370E9955EA040009EB01080BD0C0
:1019F0004FF0020918F5FA7F16DA4FEACA70002F85
:101A0000706008DD012007E04FEACA70C6E900B047
:101A10000FB0BDE8F08F00203060FFF773FCC0F816
:101A200000901821084616E0B8F5FA7F18DD002F5F
:101A300002DAF748784401E0F6487844D0E900102B
:101A4000C6E9001040EACA707060FFF75BFCC0F89E
:101A50000090142108460FB0BDE8F04F0AF07BBC9F
:101A6000002108464FF00000B8F10001099002DAA9
:101A7000C7F1000200E03A4601DAC8F1000106A809
:101A8000FFF79CFE06AB93E8070003AB83E8070073
:101A900044F23E005BEA04010090584604D144F24F
:101AA0001E012C465D460091210C0904014306D11C
:101AB0000099240444EA15442D041039009104F0DF
:101AC0007F41014306D10099240244EA15642D02A6
:101AD0000839009104F07041014306D100992401B6
:101AE00044EA15742D01091F009104F0404101439F
:101AF00006D10099A40044EA9574AD00891E0091B6
:101B000004F00041084304D100986D196441401E5F
:101B100000904FF001033A466846B8F1000FCDE956
:101B2000014503A902DD00F0E2FE01E000F0B5FE90
:101B3000BAF1000F04460D4601D084F000440021A4
:101B400008464FF00000099940F2FF77484010F036
:101B50000C0F07D124F00040284303D0C4F30A50EF
:101B6000B84212D1FFF7CEFBC0F80090C4F30A5080
:101B7000B8420AD1A8487844D0E90010C6E900105C
:101B800004F000410843706042E7C6E900543FE7B3
:101B90002DE9FF4F1F464FF0000A4FF0FF38454632
:101BA00091B0D7E90146CDF83CA0FFF7A7FBC0688C
:101BB0000168405C1090B96912986D1C8847396AB9
:101BC000814688470028F6D1B9F1FF3F0AD0002EA0
:101BD00024F4D06411DDB9F12B0F08D0B9F12D0F29
:101BE0000BD102E0404615B013E744F48064B969B4
:101BF00012986D1C8847761E8146600504A901D5A0
:101C00002D2000E02B20002E01F1010B0DF13008FA
:101C10008DF810003FDDB9F1690F08D0B9F1490F17
:101C200005D0B9F16E0F02D0B9F14E0F1CD13B4671
:101C300001A8009580E85002DDE912126FF0020061
:101C40000AF01AFCC11CCED10EE0B96912986D1CC5
:101C5000884781461398761E44F4007405600F98F7
:101C6000401C002E0F9016DDB9F1300FEDD0B9F108
:101C7000780F02D0B9F1580F0DD10F9801280AD171
:101C80003B46CDE90054DDE91212001F02960AF02E
:101C9000F1FBC11CA7D1109989453ED144F08004C5
:101CA00006E01399681CAAF1010A44F40074086064
:101CB000B9696D1C1298761E884730288146F0D08D
:101CC0002BE01099894505D1200603D4761E44F0F7
:101CD000800418E0484605F008F808B3761E0DF1B8
:101CE00023018B4544F4007408D2A9F130000BF8AD
:101CF000010B200607D5AAF1010003E0200602D45B
:101D00000AF101008246A00502D51399681C0860FB
:101D1000B96912986D1C88478146002ED1DC53E0CA
:101D2000002E51DDB9F1650F02D0B9F1450F4BD14D
:101D3000A00549D5B9696D1C1298761E24F440742B
:101D40008847002E81460CDD2B2804D0B9F12D0FD9
:101D500007D144F48074B96912986D1C8847761EC7
:101D60008146E00501D52D2100E02B2108F8011B5B
:101D7000CDF8008021E0761E0DF13901884544F44C
:101D800000740CD2A9F1300010F0FF0088F80000B8
:101D900002D10099884509D908F1010806E0E0055B
:101DA00001D51E4801E042F20F708246B9691298CF
:101DB0006D1C8847814613980560002E04DD484657
:101DC00004F093FF0028D6D1F96912988847FF20C4
:101DD00053468BF8000088F8000000200A900B9012
:101DE00004AA0CA90AA8FFF7ADFDA00502D46FF064
:101DF0000100F8E614F0240F12D0E0071CD1386877
:101E0000DDE90A12031D3B600068C0E9001213E01F
:101E1000C8C30000BAC300007EC20000F1D8FFFFB3
:101E20000AA9684604F0F0FEE00705D13868009A78
:101E3000011D3960006802602846D4E610B50446EA
:101E4000AFF300802046BDE81040FEF70CBA00005A
:101E50002DE9FF4F1F464FF03C0987B04FF000427D
:101E6000DDE9141001F10108DDF858A002EA405044
:101E70000390002005908346054604460490B96906
:101E8000461E08988847AAF1010A0290BAF1000F8D
:101E90003BDD02982E2815D0102100F01CFA0028F6
:101EA0002EDB4FF0010B0599014317D0B9F1000F5C
:101EB0000BDB4A46C11700F0FBF905430C43A9F1BF
:101EC000040905E0012004900BE008B145F001058C
:101ED00001200590049820B9361D02E0049800B155
:101EE000361FB969089808F101088847BBF1000F4F
:101EF000AAF1010A0290C9D00999C1F80080C5E78A
:101F00000298702808D0502806D0F96908988847A8
:101F1000BBF1000F14D04FE0002002900120BBF174
:101F2000000F049009D0B969089808F101088847A2
:101F3000AAF10109B9F1000F07DCF969089888478F
:101F40006FF001000BB0BDE8F08F2B2804D02D28D6
:101F50000CD14FF0FF300490B969089808F10108DE
:101F60008847A9F10109B9F1000FE6DD411CE4D071
:101F70000A2100F0B0F90028DFDB029908F101081E
:101F800001EB810100EB41000290B9690898884794
:101F90000A2100F0A0F9099AA9F10109B9F1000F8D
:101FA000C2F8008001DD0028E7DAF969089888475F
:101FB0000499029800FB016655EA040004D004F07D
:101FC0004041090002D006E0039898E0A40044EAEA
:101FD0009574AD00B61E04F00041080002D16D19E1
:101FE0006441761E159810F0240F03D04FF00B09B2
:101FF0005C4803E04FF028096FF07D0082465645AB
:1020000007DAAAEB06018944B9F1410F01DD4FF06F
:10201000410901200021A9F1010200F049F902461D
:1020200028400B462140084301D0012100E0002157
:10203000501E029143F1FF3128402140084301D056
:10204000012000E000200299834651EA0B014FD0A5
:10205000002108464FF00000039900F4400039B118
:1020600000EB80004FF4400100EBD07001EA60000B
:102070008015012802DD4FF0FF3000E013D0401C36
:1020800036D0029860B3BBF1000F0CD14A46012054
:10209000002100F00DF928402140084301D0012023
:1020A00000E00020E0B101204A46002100F000F9E4
:1020B000034640190A4661412D1A8C4111D3B9F1EA
:1020C000400F09DD159810F0240F02D0AAF1340654
:1020D00003E0AAF1170600E0761C00254FF000444B
:1020E00006E05B1E42F1FF3220EA030521EA02040A
:1020F000CAF10100B04206DA1B4903980843019077
:10210000002000900EE0039AC4F3D321E80A0A43AA
:10211000164940EA44500A433146CDE90002684678
:1021200004F0D8FD159810F0240F0BD01598C007B7
:1021300015D13868DDE90012031D3B600068C0E975
:1021400000120CE002A8694604F05EFD1598C00775
:1021500005D13868029A011D396000680260404666
:10216000F0E6000002FCFFFF0000F07F0000F03FFF
:102170002DE9FF4F92461D4685B04FF00041DDE945
:10218000124BDDE914727F1E01EA4B50414940F0C9
:10219000FF4940EA0108002122F02000492804916B
:1021A00002D04E2828D04CE03BA0012607C88DE87D
:1021B0000700A9690698641C88477F1E014606D45B
:1021C0001DF8060018B121F0200181420BD0E96909
:1021D00006988847032E34D0082E32D06FF00100C5
:1021E00009B0BDE8F08F761C032E01D0082EE0D197
:1021F000601CCAF80000DCE7A9690698641C8847DF
:102200007F1E2AD420F02000412826D1A9690698F3
:10221000641C88477F1E20D420F020004E281CD14B
:10222000A9690698641C88477F1E48F4002849F471
:102230008009CAF8004001D4282806D0E969069828
:1022400088475FEACB7012D022E0A9690698641C27
:1022500088477F1E01D4002803DAE9690698884779
:10226000BCE72928F1D1641CCAF80040E9E71BF05B
:10227000240F07D028680499031D2B600068C0E96B
:10228000001805E02868021D2A600068C0F8009068
:102290002046A5E70000F07F494E46494E49545973
:1022A0000000000001491820ABBEFEE72600020036
:1022B000B2F120030AD5C2F1200301FA02F120FA9B
:1022C00003F300FA02F041EA0301704700FA03F158
:1022D0004FF0000070473A2800D2303820F020023A
:1022E000412A01D3A2F13700884201D34FF0FF30D9
:1022F000704770475FEA400C08BF91F0000F4FEA4B
:102300008C234FEAC12243EA51514FEA1C5018BFB7
:1023100000F5F0404FEA300018BF41F000415FEA9D
:102320006C5C00F02980BCF1FF3F08BF40F08040AA
:102330007047130C06BF12044FF0100C4FF0000C46
:10234000130E04BF12020CF1080C130F04BF12018C
:102350000CF1040C930F04BF92000CF1020CD30F8C
:1023600004BF52000CF1010C11464FF00002A0F125
:102370001F00A0EB0C00704711F0004F08BF704722
:1023800031F000413FF4D5AF0B0C06BF09044FF00C
:10239000100C4FF0000C0B0E04BF09020CF1080CDE
:1023A0000B0F04BF09010CF1040C8B0F04BF890053
:1023B0000CF1020CCB0F04BF49000CF1010CCCF165
:1023C0002003A0EB0C0022FA03F302FA0CF241EA1C
:1023D000030100F10100704720F07F4C80EA030008
:1023E00023F07F47ACEB070303F57C5300F000407C
:1023F00003F1FF032DE980494FEA154B09B44FEA79
:10240000144325EA0B4E24EA03480FF2042606EB98
:10241000132749083E785FEA320203FB0667C7F5D7
:10242000000707FB06F64FEA54374FEAD64606F197
:10243000020607FB066CCCF1005C4FEA1C472CEA55
:10244000074C07FB06F40CFB06F504EB15464FEAB8
:10245000961634BF00204FF000404FEAD13706FBFC
:1024600007FC4FEA1C4C0CFB0BF7D21B03FB0CF7D1
:1024700061EB07010CFB0EF7B0EB074072EB174264
:102480000CFB08F734BFA2EB0742B2EB074261EB4B
:1024900017414FEA0C444FEA910706FB07FC4FEA4D
:1024A0001C4C0CFB0BF7B0EBC74072EB573203FB35
:1024B0000CF734BFA2EBC742B2EBC74261EB573116
:1024C0000CFB0EF7B0EBC70072EB57720CFB08F772
:1024D00034BFA2EBC702B2EBC70261EB5771039F97
:1024E0004FEA816141EA921104EBCC044FEAD13703
:1024F0004FEA826206FB07FC42EA90124FEA8060D4
:102500004FEA1C4C0CFB0BF7D21B03FB0CF761EBE7
:1025100007010CFB0EF7B0EB074072EB17420CFB08
:1025200008F734BFA2EB0742B2EB074261EB174159
:102530004FEA8C554FEA910704EB9C2406FB07FCFD
:102540004FEA1C4C0CFB0BF7B0EBC74072EB573259
:1025500003FB0CF734BFA2EBC742B2EBC74261EBFF
:1025600057310CFB0EF7B0EBC70072EB57720CFB48
:1025700008F734BFA2EBC702B2EBC70261EB577199
:1025800015EB4C254FEA816141EA92114FEA8262D4
:102590004FEAD13742EA901206FB07FC44F10004EF
:1025A0004FEA80604FEA1C4C0CFB0BF7D21B03FB7D
:1025B0000CF761EB07010CFB0EF7B0EB074072EB79
:1025C00017420CFB08F734BFA2EB0742B2EB0742FD
:1025D00061EB174115EB1C154FEA813141EA92413D
:1025E0004FEA823242EA90424FEA80304FEA0C765C
:1025F00044F1000448EA03434EEA0B484FF0000E52
:10260000B2EB080C71EB030724BF624639464EEB70
:102610000E0E4FF0000B0018524149414BEB0B0BD3
:10262000B2EB080C71EB03077BF1000B24BF624691
:1026300039464EEB0E0E4FF0000B00185241494147
:102640004BEB0B0BB2EB080C71EB03077BF1000BB0
:1026500024BF624639464EEB0E0E51EA020718BF00
:1026600046F0010616EB0E7655F1000254F100011A
:1026700003D5BDE88901BDE80088BDE88901BDE852
:102680000048B619524141EB0101A3F10103704723
:1026900080807F7E7D7C7B7A79787776767574739F
:1026A000727171706F6E6E6D6C6C6B6A6A6968685E
:1026B000676666656464636362616160605F5F5EF4
:1026C0005E5D5D5C5C5B5B5A5A595958585757566A
:1026D00056555555545453535252525151505050CF
:1026E0004F4F4F4E4E4D4D4D4C4C4C4B4B4B4A4A21
:1026F0004A49494948484847474747464646454565
:10270000454444444443434343424242424141419D
:1027100046EA0646A3F570534FEA164646EA425685
:102720004FEAD22242EA415210B54FEAD121A3F139
:10273000010300F02FF820F0004000F1020C00F03F
:10274000004701EB00501146BCF5006F40EA07005E
:1027500000D210BDBAF1000F0AD01CB503B44FF07F
:1027600004004FF004014FF000000FBCBDE8104022
:102770004FF00001BBF1010FB9BF04484FF0FF312A
:102780000348002140EA070010BD00BFFFFFEF7FB4
:102790000000F07F002B9C4630D477002BD01CB576
:1027A0004FEA370703B44FF010004FF01001BAF1B1
:1027B000000F06D0BCF1000FDCBF40F0080040F075
:1027C00008014FF000000FBCBDE810400BF1010BF9
:1027D000BBF1010F08BF5FEA170722BF12F1010228
:1027E00011F101014FF0004143F1000300F00040FE
:1027F00043EA00007047F9D35708D0E746EA064697
:1028000013F1400F4FEA16461FDD13F1200FDFBF13
:1028100016430A46002120335B42BED0C3F1200795
:1028200046EA064602FA07F74FEA164646EA070660
:10283000C3F1200722FA03F201FA07F721FA03F1A4
:102840004FF0000342EA0702A7E746EA020646EA1B
:1028500006464FEA164646EA0106BCBF46EA064669
:10286000360C4FF000034FF000024FF0000194E7E8
:102870002DE9804C9A46934670B491E8380007C819
:1028800031EA400C48BF34EA430C03D5FFF7A4FDFE
:10289000FFF780FFF0BCBDE8008C2DE9804C9A4624
:1028A000934670B491E8380007C831EA400C48BF3D
:1028B00034EA430C03D5FFF78FFDFFF729FFF0BC87
:1028C000BDE8008C2DE9804C9A46934670B491E89F
:1028D000380007C810F0804F08BF13F0804F03D1B5
:1028E00000F01AF8FFF756FFF0BCBDE8008C2DE9A8
:1028F000804C9A46934670B491E8380007C810F0AF
:10290000804F08BF13F0804F03D100F005F8FFF7A8
:10291000FFFEF0BCBDE8008C20F07F4780EA03009A
:1029200023F07F4C07EB0C03A3F57C5300F0004031
:10293000A3F1FE0392F0000F00F0B38095F0000FBA
:1029400000F077802DE901494FEA11404FEA144623
:1029500021EA004800FB06FC24EA064708FB06F6CD
:1029600007FB08F800FB07F718EB06484CEB164C82
:102970004FEA124B18EB07484FEA15464CEB17404D
:1029800022EA0B4E0BFB06FC25EA06470EFB06F679
:1029900007FB0EFE0BFB07F71EEB064E4CEB164C2F
:1029A0004FF000061EEB074E4CEB174B18EB0B08D5
:1029B00040F1000018EB0E0B58EB000840F100004E
:1029C0008F1A4FF000013CBFC943661B14BFB5EB23
:1029D000040C00213CBFC943F61B4FEA17444EEAE2
:1029E0008E0E27EA04454FEA1C4704FB07622CEAD7
:1029F000074C05FB07F70CFB05F604FB0CFC16EB7C
:102A0000074642EB174216EB0C4642EB1C421BEB0F
:102A1000060658EB0202414146EA9E0601D5BDE892
:102A20000189B619524141EB0101A3F10103BDE84F
:102A300001894FEA14454FEA114724EA054621EA85
:102A4000074C05FB07F406FB07F70CFB06F105FB3B
:102A50000CFC11EB074144EB17444FEA124711EB12
:102A60000C4144EB1C4422EA074C05FB07F206FB31
:102A700007F70CFB06F605FB0CFC16EB074642EBD2
:102A8000174216EB0C4642EB1C456A1854F1000144
:102A900048BF7047B619524141EB0101A3F1010350
:102AA000704795F0000F37D04FEA11424FEA1447B4
:102AB00021EA024624EA074C02FB07F106FB07F76E
:102AC0000CFB06F402FB0CFC14EB074441EB174132
:102AD0004FEA154714EB0C4441EB1C4125EA074C27
:102AE00002FB07F506FB07F70CFB06F602FB0CFCE6
:102AF00016EB074645EB174516EB0C4645EB1C421B
:102B0000121951F1000148BF7047B619524141EB0B
:102B10000101A3F1010370474FEA14454FEA114741
:102B200024EA054621EA074C05FB07F106FB07F7F7
:102B30000CFB06F24FF0000605FB0CFC12EB074203
:102B400041EB174112EB0C4251EB1C4148BF70475F
:102B5000921841EB0101A3F101037047FEE703F076
:102B6000ABF803F0A3FAFCE786B0234801F0C6F9FE
:102B70004FF0FF320021012006F088FB03F010FB2C
:102B800000F07EF803F0F2FA009000F043F809F04C
:102B900075FA824600F038F809F070FA834600F0C2
:102BA00057F809F06BFA814600F064F809F066FA0C
:102BB000804603F0BDFA09F061FA074603F0B2FA65
:102BC00009F05CFA064603F0BFFA09F057FA054629
:102BD00003F0B4FA09F052FA044603F0C1FA009B7C
:102BE0002A46CDE904A38DE8800B3346214603F045
:102BF000FDFE03F019FFBBE7500300200148006A07
:102C00007047000070000020014800697047000014
:102C100070000020014840697047000070000020EB
:102C20000148C06B70470000700000200148806BB5
:102C300070470000700000200148406B70470000A2
:102C4000700000200148006B7047000070000020F9
:102C50000148806870470000700000200148C06A89
:102C600070470000700000200148806A7047000033
:102C7000700000200148406870470000700000208C
:102C80002DE9FC4703F04EFA804603F051FA054661
:102C900003F066FA019003F051FA814603F05AFA04
:102CA000824603F02FF8494C002718B903F024F8A6
:102CB00000B9A76103F026F810B1A069401EA06119
:102CC00003F01AF80028A06901D0401CA061142666
:102CD000142801DDA66104E06FF01301884200DAD8
:102CE000A16103F015F818B903F018F800B9E7610D
:102CF00003F00EF810B1E0691E30E06103F00EF849
:102D00000028E06901D01E38E061962802DD962097
:102D1000E06104E06FF09501884200DAE16102F0C1
:102D2000F7FF10B902F0FAFF48B1E763606A10F1EB
:102D3000FF4F0CD22649884204DAA66107E02548F5
:102D4000E063F3E72449884201DA0A20A061009594
:102D5000D4E90C014346A26902F03CFF0546A0609D
:102D6000484609F08BF90646284609F087F9216A9A
:102D700009F01EF802460096D4E90A01019B02F010
:102D80007BFF6060504609F079F90246D4E90E01F4
:102D9000E36902F009FFE06061680A1A08440B4920
:102DA000C4E904201431081F02F0CEFAD4E904016A
:102DB00002F0E0FA054801A9203003F02DFA207056
:102DC000002801D002F050FFBDE8FC877000002011
:102DD0000000A0419A99193F000020420149086271
:102DE00070470000700000200149C8637047000070
:102DF00070000020014988637047000070000020C7
:102E000001494863704700007000002001490863D1
:102E100070470000700000200149C8627047000040
:102E20007000002001498862704700007000002097
:102E3000014800F0E5B800006C040020014800F0F3
:102E4000DFB800002804002030B590F8405001247D
:102E5000AC40C56B6C60046863604368102B03680A
:102E600003D099600068C26030BD9A600068C1609C
:102E700030BD704703F056F902461CA11D48FDF70E
:102E8000A3FA002110231B4A084602F04DFE03F06E
:102E90004FF9024618A11748FDF796FA1023154A74
:102EA0000221002002F040FE03F05AF908F054FF1E
:102EB00002460B4612A10F48FDF786FA10230D4A71
:102EC0000421002002F030FEFFF79EFE02460FA113
:102ED0000848FDF779FA0C23064A0621002002F083
:102EE00023FEC82006F036F9C4E700004C3A25342A
:102EF0006420200054020020523A2534642020002F
:102F0000526F6C6C3A252E31662020004D313A25E7
:102F1000346420200000000072B6FEE710B590F87F
:102F200021100022022905D00421816380F820208D
:102F3000012010BD01680B6823F00E030B600168CF
:102F40000B6823F001030B6090F84030C46B012143
:102F500001FA03F3636080F8211080F82020104606
:102F600010BD000010B590F821100024022903D0F4
:102F70000421816301243DE001680A6822F00E0209
:102F80000A6001680A6822F001020A601A4A0168B0
:102F9000914201D1012121E0174A1432914201D11D
:102FA00010211BE0144A2832914201D1891515E005
:102FB000114A3C32914201D189140FE00E4A50323D
:102FC000914202D14FF4803108E00B4A64329142C1
:102FD00002D14FF4801101E04FF08071064A083AA7
:102FE0005160012180F82110002180F82010416BF0
:102FF00001B18847204610BD08000240806B704731
:103000002DE9F05FC16B0C6801680B68D0F840C017
:10301000042202FA0CF2494DDFF824A1494E4A4F2E
:10302000DFF828B1DFF828E122422CD05A072AD550
:103030000A68920603D40A6822F004020A60016852
:10304000A94201D1042219E0514501D1402215E0E5
:10305000B14202D14FF4806210E0B94202D14FF484
:1030600080420BE0594502D14FF4802206E07145C1
:1030700002D14FF4800201E04FF080622F490839FD
:103080004A60C16A3BE04FF0020808FA0CF818EAFF
:10309000040F4FF000094FF0010235D05FEA83784A
:1030A00032D50B689B0605D40B6823F00A030B602E
:1030B00080F821200168A94201D1022219E051457E
:1030C00001D1202215E0B14202D14FF4007210E08C
:1030D000B94202D14FF400520BE0594502D14FF4EE
:1030E000003206E0714502D14FF4001201E04FF0CA
:1030F0000072124908394A6080F82090816A0029DC
:103100001AD0BDE8F05F0847082505FA0CF52542FE
:1031100012D01B0710D50B6823F00E030B6090F83C
:103120004010C36B02FA01F15960826380F82120DC
:1031300080F82090016BE2E7BDE8F09F08000240B4
:103140001C0002403000024044000240580002408F
:103150006C00024030B528B308C813491422194442
:10316000B1FBF2F18900C16310498163022141770B
:103170001A6843F6F0718A43D0E900142143D0E97C
:1031800002452C4321430469214344692143846956
:1031900021431143196000214163012242770177E5
:1031A000084630BD012030BDF8FFFDBF00000240E1
:1031B00070B5044690F82000002501280CD00120AD
:1031C00084F8200094F821600020012E06D084F8B5
:1031D00020000225284670BD022070BD022684F81A
:1031E0002160A0632068066826F00106066020467C
:1031F000FFF72AFEE06A00282068016802D041F04B
:103200000E0106E021F0040101602068016841F030
:103210000A0101602068016841F001010160D9E7FD
:1032200070B5044600F008F90546601C02D0044859
:103230000078044400F000F9401BA042FAD370BDAE
:10324000E80000202DE9F84FDFF8B8910024A9F13B
:10325000040B23460F2709F1040AABF1040EC9E061
:103260000125A5402A40AA427DD1674ED1F804C06D
:10327000ACEB0608B44532D014DCBCF1030F3AD0F5
:1032800009DCBCF1000F2AD0BCF1010F1CD0BCF14D
:10329000020F31D11DE0BCF1110F17D0BCF1120F9C
:1032A0002AD119E0B8F5881F19D006DCB8F5803F9F
:1032B00015D0B8F5801F1FD111E0B8F5001F0ED052
:1032C000B8F5041F18D10AE0CB6815E0CB681B1DC8
:1032D00012E0CB6808330FE0CB680C330CE08B684E
:1032E0002BB1012B4FF0080303D0456104E0042308
:1032F00002E0056100E00023FF2A01D8064601E054
:1033000000F104064FEA840501D9A5F12005D6F89D
:10331000008007FA05FC28EA0C0803FA05F548EADC
:103320000508C6F800804D68ED0062D5374DAE69DE
:1033300046F00106AE61AD6924F0030605F0010513
:103340000095334D06EB050CDCF80850A607360F48
:1033500007FA06F825EA0805DFF8B880404503D1EA
:103360004FF0000817E044E0DFF8AC80404502D1A0
:103370004FF001080FE0DFF8A480404502D14FF084
:10338000020808E0DFF89880404502D14FF00308BA
:1033900001E04FF0040808FA06F848EA0508CCF8FE
:1033A00008804D68D9F80060ED024D4601D51643FE
:1033B00000E096432E604D68DAF80060AD02554695
:1033C00001D5164300E096432E604D68DBF800609F
:1033D000AD035D4601D5164300E096432E604D686F
:1033E000DEF80060ED03754601D5164300E0964314
:1033F0002E60641C0D682A46E5407FF431AFBDE8BD
:10340000F88F000008040140000011100010024075
:103410000000014000080140000C01400010014084
:10342000001401408068084000D0012070470AB1B4
:10343000016170470904FBE701488068704700009C
:10344000E800002070B5040025D094F83D00002568
:1034500020B984F83C50204600F050F9242084F82C
:103460003D002068016821F00101016020680168C9
:1034700041F4004101602068016821F400410160CD
:1034800000F0A8FA4D4A6168914201D84C4900E029
:103490004C49884201D2012070BD4B492368B0FBE2
:1034A000F1F15E6826F03F060E435E60636893426A
:1034B00006D94FF4967359434FF47A73B1FBF3F185
:1034C0002368491C1E6A26F03F0631431962616871
:1034D000914210D84900401EB0FBF1F2521CC2F3D9
:1034E0000B02042A01D2042022E0B0FBF1F0401CC0
:1034F000C0F30B001CE0A268F2B301EBC10303EBC5
:103500000116431EB3FBF6F35B1C43F480431B051B
:1035100049D092B301EBC10202EB0111401EB0FB96
:10352000F1F0401CC0F30B0040F4804040F4004038
:103530002168CA694CF6FF739A431043C861D4E905
:10354000071001432068026822F0C00211430160A5
:10355000D4E9030101432068826848F2FF339A43AB
:1035600011438160D4E9050108432168CA6822F04B
:10357000FF021043C86001E00EE016E02068016819
:1035800041F0010101602564202084F83D0025639D
:1035900084F83E50002070BD01EB4106431EB3FB92
:1035A000F6F35B1CB3E70120C2E701EB4101401ECB
:1035B000B0FBF1F0401CC0F30B00B7E7A0860100A0
:1035C00080841E0000093D0040420F002DE9FF4F9E
:1035D00083B09A46DDE9119793460446DDF84080B2
:1035E000FFF72AFF054694F83D0020287FD11923D4
:1035F000012240492046009501F0BEFC002876D10A
:1036000094F83C00012872D0012084F83C00206826
:103610000168C90703D1016841F001010160206818
:10362000016821F400610160212084F83D00402000
:1036300084F83E0000262664C4F82480A4F82A906A
:10364000608D20852C48E062CDE9007553465A46CE
:103650002046049901F010FC70B930E02A46394642
:10366000204601F02FFD58B1206C042804D12068B9
:10367000016841F400710160012007B0BDE8F08FDE
:10368000606A216800780861606A401C6062218D70
:10369000491E89B22185628D521E62852268536956
:1036A000DB435B070BD469B100781061606A401C92
:1036B0006062208D401E2085608D401E6085208DBB
:1036C0000028CBD12A463946204601F029FC0028A3
:1036D000CAD154F83D0B016841F40071016020200B
:1036E00004F81E09E67766770020C6E7FFE70220A8
:1036F000C3E70000020010000000FFFF10B586B015
:1037000000210091019102910391006813498842C0
:1037100022D1134CA06940F00800A061A06969465D
:1037200000F0080004904FF44070009012200190C7
:10373000032003900B48FFF785FD0B48416841F0DB
:10374000E06141F002014160E06940F40010E06195
:10375000E06900F40010049006B010BD0054004071
:1037600000100240000C0140000001400248816846
:103770000278114481607047E8000020074810B5C6
:10378000016841F010010160032000F07BF80F2078
:1037900000F006F800F024F8002010BD00200240E0
:1037A00070B50D4D04464FF47A712878B1FBF0F0F6
:1037B0000A490968B1FBF0F000F0E2FA48B9102CB0
:1037C00007D200222146501E00F03CF800206C6019
:1037D00070BD012070BD0000E8000020F400002052
:1037E0000F4808B5816941F001018161816901F0EB
:1037F00001010091C16941F08051C161C06900229D
:1038000000F0805000900F21901E00F01BF805483A
:10381000416821F0E06141F00071416008BD0000A5
:103820000010024000000140002809DB00F01F02E8
:10383000012191404009800000F1E020C0F8001112
:1038400070470000F0B40E4B1B680C46C3F3022314
:10385000C3F10705042D00D90425191D072901D23C
:10386000002300E0DB1E012606FA05F1491E214077
:1038700099409E40761E16403143F0BC03F044B997
:103880000CED00E0064900F0070208684FF6FF0360
:10389000184040EA0220034A1043086070470000C5
:1038A0000CED00E00000FA052DE9F0470F46050099
:1038B00061D0434E306800F00700B84209D230684A
:1038C00020F0070038433060306800F00700B8424D
:1038D00051D128683B4C810712D5400703D5606859
:1038E00040F4E06060602878000703D5606840F429
:1038F000605060606068A96820F0F0000843606074
:103900002878C00728D06868012810D021680228CC
:1039100010D0890700292EDA616821F003010143E4
:103920006160FFF789FD804641F288390DE021682A
:103930008903EFE78901EDE7FFF77EFDA0EB0801C2
:10394000494502D90320BDE8F0876068696800F046
:103950000C00B0EB810FEFD1306800F00700B842E7
:103960000BD9306820F0070038433060306800F031
:103970000700B84201D00120E5E72878400705D5C7
:103980006068E96820F4E060084360602878000718
:1039900006D56068296920F4605040EAC100606083
:1039A00000F038F86168084AC1F30311515CC8405F
:1039B0000649086006480068FFF7F2FE0020C2E7EB
:1039C00000200240001002405EDB0008F4000020EE
:1039D000EC0000200448054900684968044AC1F326
:1039E0000221515CC8407047F400002000100240E2
:1039F0006EDB00080448054900684968044AC1F3C1
:103A0000C221515CC8407047F40000200010024001
:103A10006EDB00080E4A51680E4801F00C03042BBF
:103A200011D0082B0FD10C48C1F38343C903C05CEC
:103A30000AD55168084AC1F34041921E515C054ABB
:103A40005043B0FBF1F07047044948437047000011
:103A50000010024000127A004EDB000800093D0011
:103A60002DE9F84F040070D02078C04DC00749D030
:103A70006868C0F38100012807D06868C0F381003E
:103A8000022809D16868C00306D52868800339D5A3
:103A900060680028E7D035E06068B0F5803F0BD063
:103AA00010B1B0F5A02F11D0286820F48030286024
:103AB000286820F4802002E0286840F480302860E4
:103AC000606890B1FFF7B8FC06460AE0286840F449
:103AD00080202860F0E700BFFFF7AEFC801B642861
:103AE00073D828688003F7D50CE0FFF7A5FC0646DD
:103AF00005E000BFFFF7A0FC801B6428F0D8286811
:103B00008003F7D420789A4E80074FF001094FF0D8
:103B1000000839D5686810F00C0F07D06868C0F34A
:103B20008100022809D16868C00306D4286880078C
:103B300014D52069012808D110E02069B0B1C6F879
:103B40000090FFF779FC074605E00AE1FFF774FCF7
:103B5000C01B0228C4D828688007F7D52868616987
:103B600020F0F80040EAC10028600DE0C6F80080AF
:103B7000FFF762FC074604E0FFF75EFCC01B02286B
:103B800023D828688007F7D4207800072CD57948F7
:103B9000A169D9B1C0F80090FFF74EFC074604E0D8
:103BA000FFF74AFCC01B02280FD8686A8007F7D5C8
:103BB00071484FF4FA510068B0FBF1F0009000BF7B
:103BC0000098411E0091FAD20EE080E0C0F800801B
:103BD000FFF732FC074604E0FFF72EFCC01B02286B
:103BE00075D8686A8007F7D42078400760D5E869FF
:103BF0000027C00008D4E86940F08050E861E86917
:103C0000012700F0805000905C480168C90513D47A
:103C10000168834641F480710160FFF70DFC824624
:103C200006E000BFFFF708FCA0EB0A0064284ED8AE
:103C3000DBF80000C005F5D5E06801280AD008B11E
:103C4000052813D0286A20F001002862286A20F095
:103C5000040002E0286A40F001002862E06841F2B6
:103C6000883B98B1FFF7E8FB82460BE0286A40F0FA
:103C700004002862EEE700BFFFF7DEFBA0EB0A01BD
:103C800059455AD8286A8007F6D50CE0FFF7D4FBCF
:103C9000824605E0FFF7D0FBA0EB0A0159454CD85E
:103CA000286A8007F6D41FB1E86920F08050E861E7
:103CB000E06988B36968C1F38101022944D0022810
:103CC000C6F8608004D0FFF7B7FB044638E034E064
:103CD000FFF7B2FB074604E0FFF7AEFBC01B02286C
:103CE0002BD828688001F7D4206AB0F5803F05D131
:103CF0006868A16820F4003008436860D4E90801CE
:103D00000843696821F4741108436860C6F860903C
:103D1000FFF792FB044606E025E000BFFFF78CFBAF
:103D2000001B022809D828688001F7D51BE000BFD6
:103D3000FFF782FB001B022802D90320BDE8F88FA1
:103D400028688001F4D40EE00128F7D06868226A60
:103D500000F48031914204D1616A00F4701088420D
:103D600001D00120EAE70020E8E70000001002404F
:103D70000000424280044242F400002000700040F3
:103D800010B5401EB0F1807F01D3012010BD4FF06F
:103D9000E02460610F21601702F0B6FE0020A061F0
:103DA00007202061002010BD7047704710B590F8C3
:103DB0003C20012A22D0012280F83C20CA688C686D
:103DC00022F4407222434C6822F4806222430C6841
:103DD00022F4006222430C6922F4805222434C698F
:103DE00022F400522243C969002322F480420A438C
:103DF00001684A6480F83C30002010BD022010BDEC
:103E000070B590F83C20012A26D0012480F83C406F
:103E1000022280F83D2003685A689D6822F07006EF
:103E20000A6832435A600D4B02689A4208D0B2F1D8
:103E3000804F05D00A4B9A4202D00A4B9A4204D1D5
:103E4000496825F080031943916080F83D400021C6
:103E500080F83C10084670BD022070BD002C014067
:103E6000000400400008004010B5040003D094F89E
:103E70003D0010B107E0012010BD002084F83C0097
:103E8000204600F01FF8022084F83D00211D206824
:103E900002F026FA012084F8460084F83E0084F8F7
:103EA0003F0084F8400084F8410084F8420084F820
:103EB000430084F8440084F8450084F83D00002065
:103EC00010BD000008B500680A49884210D10022E0
:103ED00005211D20FFF7B6FC1D20FFF7A5FC0648B5
:103EE000C16941F00201C161C06900F002000090A7
:103EF00008BD0000000400400010024090F83D1092
:103F0000012901D001207047022180F83D1001688D
:103F1000CA6842F00102CA6000680B49884208D0B2
:103F2000B0F1804F05D00949884202D00849884243
:103F300004D1816801F00701062903D0016841F02E
:103F40000101016000207047002C01400004004086
:103F50000008004070B5044690F83C000025012898
:103F600017D0012684F83C60022084F83D002068C8
:103F7000826822F0770222F47F428260086850282B
:103F800038D00DDC20284FD005DC90B3102811D19B
:103F90004AE0022070BD302846D040280AD13BE0DC
:103FA00060282FD070280DD0B0F5805F03D0B0F519
:103FB000005F12D0012584F83D60002084F83C00A9
:103FC000284670BDCB68D1E90121206802F0CBF909
:103FD0002068816841F0770109E0CB68D1E90121CF
:103FE000206802F0C0F92068816841F48041816056
:103FF000E1E719E0CA684968206802F069FA5021CF
:10400000206806E0CA684968206802F09FFA6021CB
:10401000206802F0B2F9CEE7CA684968206802F069
:1040200057FA40212068F4E7226801461046F0E77D
:104030002DE9F0410D46040003D094F83D0018B17D
:1040400008E00120BDE8F081002084F83C00204613
:1040500000F040F8022084F83D002068816844F2B6
:10406000070291438160211D206802F039F922681E
:1040700090689169166A2B68AF69034340F2033078
:10408000814341EA0721A868EF6908434FF6FC41E4
:104090008843E96840EA0720014328692F6A000144
:1040A00040EA0730084369686D6926F0220646EA4F
:1040B0000515294393602268906154F8460B01620C
:1040C000012004F81F09E0752076E0762077A075BE
:1040D0000020B7E700B585B0002100910191029161
:1040E000039101681A48B1F1804F1BD0194A9142DF
:1040F00016D1C16941F00401C161C16901F0040137
:104100000491816941F0080181618069694600F08C
:1041100008000490C02000900F4800BFFFF792F8FD
:1041200005B000BDC16941F00101C161C16901F083
:1041300001010491816941F004018161806969464E
:1041400000F004000490032000900448E6E700001B
:104150000010024000080040000C0140000801402F
:1041600070B590F83E60044690F83F5090F84230A9
:1041700090F84320022021B104290ED0012E1BD13A
:1041800014E0012E18D1012B16D184F83E0084F8DA
:10419000420001220021206820E0012D0CD1012ADB
:1041A0000AD184F83F0084F8430014E0012D03D1C4
:1041B000012B01D1012A01D0012070BD84F83E00FD
:1041C00084F83F0084F8420084F843000122002173
:1041D000206802F0BBF801220421206802F0B6F842
:1041E0002068016841F001010160002070BD0000FD
:1041F00070B5244A0168914230D1017F02292DD146
:10420000214C217869B1C568042120486D1C00F05B
:10421000C7FAA16862886943904262881FD3801AF6
:104220001FE00421194800F0BBFA60800020A06064
:1042300001202070154801680A6A22F0A0020A6273
:1042400001680A6A42F020020A6202686FF0010106
:1042500011610068C16841F00101C16070BD101AB0
:10426000281A451801F044FF4DB1284607F01EFFFB
:10427000074907F005FE074907F002FE00E006487F
:10428000606070BD002C014054000020C00200207E
:104290000000904200006842000080BF2DE9F0411C
:1042A000054690F83C0000260C46012810D001205D
:1042B00085F83C0072B1042A1CD0082A2CD00C2AA4
:1042C00050D00126002085F83C003046BDE8F08142
:1042D0000220FBE7D4E90012E368286802F00AF93B
:1042E0002868816921F00C01816128688169A268D0
:1042F00011430FE0D4E90012E368286802F038F9AE
:104300002868816921F44061816128688169A26817
:1043100041EA02218161D5E72868D4E9002C277B96
:10432000036A016A21F480710162C16923F4007398
:1043300021F0030141EA0C0121F0F00C39074FF4A0
:1043400000774CEA116107EA02221A43C161026256
:104350002868C16921F00C01C1612868C169A2689F
:1043600011432BE02868D4E90021E768036AD0F8FC
:1043700020C02CF4805CC0F820C0D0F81CC023F40E
:1043800000532CF4407C4CEA012121F4704C4FF690
:10439000FF7101EA07314FF4005741EA0C0107EAC7
:1043A00002321A43C16102622868C16921F4406186
:1043B000C1612868C169A26841EA0221C16181E73F
:1043C00070B50446006801694FF00005C9438907CC
:1043D00015D4C168C943890711D4E91E01610120C0
:1043E0002077206880698007204602D0FFF700FF11
:1043F00004E000F0C7F8204600F06CF9257720684B
:104400000169C943490717D4C168C943490713D48F
:104410006FF004010161022020772068806910F4A8
:10442000407F204602D0FFF7E3FE04E000F0AAF848
:10443000204600F04FF9257720680169C943090734
:1044400016D4C168C943090712D46FF0080101618D
:10445000042020772068C0698007204602D0FFF73B
:10446000C7FE04E000F08EF8204600F033F925770F
:1044700020680169C943C90617D4C168C943C90680
:1044800013D46FF010010161082020772068C06903
:1044900010F4407F204602D0FFF7AAFE04E000F0AF
:1044A00071F8204600F016F9257720680169C943A4
:1044B000C90708D1C168C943C90704D1891E016170
:1044C000204600F057F920680169C943090609D45C
:1044D000C168C943090605D46FF080010161204617
:1044E000FFF762FC20680169C943490609D4C16825
:1044F000C943490605D46FF040010161204600F030
:1045000064F920680169C94389060BD4C168C943AD
:10451000890607D46FF0200101612046BDE8704094
:10452000FFF743BC70BD000010B586B000210091BC
:1045300001910291039100680F49884219D14015F9
:104540000E4C009069462046FEF77CFE0C498869B7
:1045500040F0040088618869022100F004000490A2
:104560004FF41060CDE90001039169462046FEF743
:1045700069FE06B010BD0000002C0140000801409B
:1045800000100240704770B5044690F83C000026C9
:104590000D4601280FD0012084F83C006AB1042A9E
:1045A0001DD0082A2FD00C2A3FD00126002084F8E5
:1045B0003C00304670BD022070BD206801F0E6FE70
:1045C0002068816941F0080181612068816921F0DA
:1045D00004018161206881692A69114311E0206822
:1045E00001F0FCFE2068816941F40061816120686E
:1045F000816921F480618161206881692A6941EAC9
:1046000002218161D2E7206801F014FF2068C169AE
:1046100041F00801C1612068C16921F00401C16154
:104620002068C1692A69114311E0206801F02EFF5A
:104630002068C16941F40061C1612068C16921F449
:104640008061C1612068C1692A6941EA0221C161B2
:10465000ACE710B5040003D094F83D0010B107E0BA
:10466000012010BD002084F83C00204600F01EF818
:10467000022084F83D00211D206801F031FE012058
:1046800084F8460084F83E0084F83F0084F8400037
:1046900084F8410084F8420084F8430084F8440020
:1046A00084F8450084F83D00002010BD08B500687E
:1046B0000649884208D10648816941F40061816158
:1046C000806900F40060009008BD0000002C0140EB
:1046D000001002407047000010B50446022249B1A4
:1046E00004290ED0082913D094F84100012816D0CF
:1046F000012010BD94F83E000128F9D184F83E2035
:104700000FE094F83F000128F2D184F83F2008E040
:1047100094F840000128EBD184F8402001E084F8AF
:1047200041200122206801F011FE0F4920688842D3
:1047300003D1426C42F4004242642068884208D0AF
:10474000B0F1804F05D00949884202D0084988421B
:1047500004D1816801F00701062903D0016841F006
:1047600001010160002010BD002C01400004004048
:104770000008004000680749884204D1064801212A
:10478000406804F03DBD0549884201D101F0A6BC56
:104790007047000000040040D8000020002C0140B9
:1047A0000246002041B1042909D008290AD00C2969
:1047B00001D11068006C70471068406B704710683A
:1047C000806B70471068C06B7047704738B50446FF
:1047D00090F84200202801D0022038BD61B15AB1C2
:1047E0000120206300206063204602F073F8002857
:1047F000F3D1216B012901D0012038BD21680A685D
:104800004968009121680C3151E8002F42F01002F4
:1048100041E80023002BF5D138BD000038B504462F
:10482000002000900E4A2068904218D10D48806800
:1048300028B121B10A466B460B4906F0AEF880223A
:1048400009492046FFF7C2FF0098002807D0074912
:104850004FF080500860BFF34F8FBFF36F8F38BDAC
:1048600000480040CC0000209401002004ED00E04E
:1048700070B5044620680C3050E8001F21F4907198
:1048800040E80012002AF5D12068143050E8001FDB
:1048900021F0010140E80012002AF5D1206B012827
:1048A00009D120680C3050E8001F21F0100140E8C9
:1048B0000012002AF5D1206840694FF0000540063B
:1048C00015D52068143050E8001F21F0400140E861
:1048D0000012002AF5D1E06B48B14563E06BFEF7AA
:1048E0001DFB20B1E06BFEF789FB202806D0E58593
:1048F000202084F842002563002070BD10206064F1
:10490000032070BD38B5044601680F4881421AD1B2
:104910000868486800900868486800900868486817
:104920000090086848680090204600F011F82028A0
:1049300002D02046FFF79CFF2046BDE83840802289
:104940000249FFF743BF38BD0048004094010020F2
:1049500010F8411F4078084370470000F8B501681F
:1049600004460868CA684B6910F00F0F4FF0000545
:1049700059D003F0010602F49077374365D0C107A0
:1049800005D0D10503D5616C41F001016164410797
:1049900005D5D90703D0616C41F00201616481073C
:1049A00005D5D90703D0616C41F0040161640107AA
:1049B00007D502F02001314303D0616C41F00801BA
:1049C0006164616C00293AD0800604D5900602D556
:1049D000204601F0C2FE20684069616CC0F380107F
:1049E000090700D460B3204601F082FE20684069C8
:1049F000400621D52068143050E8001F21F0400106
:104A000040E80012002AF5D1E06BA8B16D4941637E
:104A1000E06BFEF7A7FA002811D0E06B416B01B004
:104A2000BDE8F040084783060FD593060DD5204614
:104A3000BDE8F84001F091BE2046FFF763FFF8BDE6
:104A40002046FFF75FFF6564F8BD266B2023012E2B
:104A50007CD1C6067AD5D60678D508684868009015
:104A600048694FF00206400640D5E16B086840688F
:104A70000004000CE8D0A28D8242E5D9E085886967
:104A800020282DD020680C3050E8001F21F48071C0
:104A900040E80012002AF5D12068143050E8001FC9
:104AA00021F0010140E80012002AF5D120681430FD
:104AB00050E8001F21F0400140E80012002AF5D123
:104AC00084F84230256320680C3050E8001F21F044
:104AD000100140E80012002AF5D1E06BFEF71EFA43
:104AE0006663A08DE18D401A81B22AE0A08DE18D30
:104AF000401A81B2E08D0028A6D00029A4D02268F7
:104B00000C3252E8000F20F4907042E80007002FAA
:104B1000F5D12068143050E8002F22F0010240E85F
:104B20000027002FF5D184F84230256320680C302F
:104B300050E8002F22F0100240E80023002BF5D1AE
:104B400066632046FFF76AFEF8BDFFE705062BD532
:104B5000150629D594F841002128F5D1A068B0F5B3
:104B6000805F01D12069B0B1206A411C21622168B7
:104B700000784860E08C401E0004000CE084E3D123
:104B80002068C16821F08001C1602068C16841F0DF
:104B90004001C160D8E7206A0088C0F3080048607F
:104BA000206A801C2062E5E74006CDD55006CBD5B3
:104BB000CA68204622F04002CA6084F8413000F002
:104BC00033F9C1E7A765000870B5040004D094F874
:104BD0004100002510B106E0012070BD84F840506E
:104BE000204600F023F8242084F841002068C168A2
:104BF00021F40051C160204601F010FE20680169D7
:104C000021F4904101612068416921F02A0141614C
:104C10002068C16841F40051C1606564202084F8B7
:104C2000410084F842006563002070BD2DE9F04129
:104C300086B0002406460094019402940394006810
:104C40002E49884257D12E48C16941F48021C16163
:104C5000C16901F480210491816941F008018161F9
:104C60008069284D00F0080004904FF480600090A7
:104C7000022001900320039069462846FEF7E2FADD
:104C8000E814CDE90004694628460294FEF7DAFAF2
:104C90001E4D1D484FF08008C5E90004C5E90248D3
:104CA0002C6187146C61C5E906472846FEF752FA65
:104CB00008B1FEF731F9F5636E62144D12484435C0
:104CC000143801C51020A5E81101104845F8104915
:104CD00044306C61C5E90647FEF73CFA08B1FEF7BF
:104CE0001BF9B5630022052127206E62FEF7AAFD9D
:104CF0002720FEF799FD06B0BDE8F081004800408E
:104D000000100240000C0140300002402804002046
:104D1000704770472DE9F843044690F841001F465C
:104D200016460D46202802D00220BDE8F8837DB14A
:104D300076B100206064212084F84100FEF77CFBFE
:104D4000A6848046E684A068B0F5805F02D003E0C8
:104D50000120EAE7206910B12E4600250EE000266A
:104D60000CE08021204601F0FDFDA0B9AEB116F89F
:104D7000010B21684860E08C401EE084E08C4346D3
:104D80004FF0000200970028EBD14FF04001204681
:104D900001F0E8FD30B10320C7E735F8020BC0F39E
:104DA0000800E6E7202084F841000020BDE700006D
:104DB00070B5044690F84100202801D0022070BD53
:104DC00049B342B32162A284E284002060642123BB
:104DD00084F84130A56B114BAB62A56B104BEB62B5
:104DE000A56B104B2B63A36B5863256813462A1DD4
:104DF000A06BFEF7DDF921686FF0400008602068C5
:104E0000143050E8001F41F0800140E80012002AF1
:104E1000F5D1002070BD012070BD0000A56600081E
:104E2000E7660008B765000800680449884203D1B6
:104E30000349002081F854007047000000480040FA
:104E4000B00400207047FEE701684A69D24352056A
:104E50000FD46FF480624A61002140F8301F202295
:104E600042738173026942F00402026101730120FE
:104E700070470020704700002DE9F84304460068A1
:104E80000D46DDE9089701689846164641F48071A1
:104E900001604B4600224FF001112046009700F0C0
:104EA0006BF848B120680068C00502D54FF4007067
:104EB00020640320BDE8F883216805F0FE00086146
:104EC0003B464A461549204600F09EF888B92068BE
:104ED0004169806900903A464946204600F0F2F860
:104EE00048B1206C042804D12068016841F40071A5
:104EF00001600120DEE7F5B2B8F1010F09D02168A9
:104F0000300A08613A464946204600F0DBF800289E
:104F1000E7D1206805610020CCE700000200010015
:104F200070B516460D4604461EE02046FFF78CFF7E
:104F300008B1012070BD681C16D0FEF77DFA801BF9
:104F4000A84200D885B920684069C04340070BD506
:104F5000002044F8300F20216173A073216941F0D3
:104F6000200121612073E4E720684069C0434007C5
:104F7000DBD4002070BD00002DE9F04798461746AD
:104F80000D460446C1F30746DDF820902AE000BF35
:104F9000B8F1FF3F26D0FEF74FFAA0EB09014145DB
:104FA00002D8B8F1000F1DD12068012E16D08069FB
:104FB00025EA00000004000C12D00020B84211D1F4
:104FC000002044F8300F20216173A073216941F063
:104FD0002001216120730120BDE8F0874069E7E7E7
:104FE0000120EBE72068012E0AD0806925EA000045
:104FF0000004000C06D00020B842C9D00020EBE726
:105000004069F3E70120F7E72DE9F0479846164697
:105010000D4604464FF000094FF0200AC1F3074740
:1050200023E020684069C043400515D4206801682A
:1050300041F40071016021686FF480604861C4F838
:10504000309084F83DA084F83E90216C41F004013A
:10505000216484F83C9021E0701C06D0FEF7ECF946
:10506000A0EB0800B04203D816B1012F1FD021E0F9
:105070002068012F15D0806925EA00000004000C8B
:1050800018D000BF44F8309F84F80DA084F80E902B
:10509000216941F02001216184F80C900120BDE8D4
:1050A000F087406925EA00000004000CEAD120687E
:1050B000406901E02068806925EA00000004000CD6
:1050C000AFD1ECE770B516460D4604461EE020460B
:1050D000FFF7BAFE08B1012070BD681C16D0FEF7BC
:1050E000ABF9801BA84200D885B920684069C0434D
:1050F00000060BD5002044F8300F20216173A07307
:10510000216941F0200121612073E4E720684069B2
:10511000C0430006DBD4002070BD000010B50E4C6B
:10512000002208212046FEF782F900F017F801223C
:1051300010212046FEF77BF900F010F80022102124
:105140002046FEF774F900F009F820460122BDE878
:1051500010400821FEF76BB9000C01400020401CF4
:10516000C0B20A28FBD370470C4800B5816985B0EE
:1051700041F0080181618069694600F008000490EF
:105180001820009003200390112001900448FEF79E
:1051900059F800F09DF805B000BD00000010024075
:1051A000000C014010B50C4C012208212046FEF7EE
:1051B0003EF9FFF7D3FF012210212046FEF737F911
:1051C000FFF7CCFF002210212046FEF730F9BDE8A2
:1051D0001040FFF7C3BF0000000C01402DE9F04173
:1051E0000024134E074625466006040E01221021B6
:1051F0003046FEF71CF9FFF7B1FF08213046FEF7F5
:1052000011F908B1641CE4B2002210213046FEF707
:105210000EF9FFF7A3FF6D1CEDB2082DE4D327B103
:10522000FFF77CFF2046BDE8F081FFF7BBFFF9E701
:10523000000C014070B5154E05460024280601D526
:10524000012200E0002208213046FEF7F0F8FFF7C7
:1052500085FF012210213046FEF7E9F8FFF77EFFB7
:10526000002210213046FEF7E2F8072C04D101227B
:1052700008213046FEF7DBF86806050EFFF76EFFE3
:10528000641CE4B2082CD9D370BD0000000C0140AE
:1052900010B50E4C012208212046FEF7C8F8012265
:1052A00010212046FEF7C3F8FFF758FF002208211F
:1052B0002046FEF7BCF8FFF751FF002210212046E0
:1052C000FEF7B5F8BDE81040FFF748BF000C0140FD
:1052D00010B50A4C002208212046FEF7A8F801224A
:1052E00010212046FEF7A3F8FFF738FF20460122E1
:1052F000BDE810400821FEF79AB80000000C0140FC
:1053000070B5104D012208212846FEF790F8FFF7EE
:1053100025FF012210212846FEF789F8FFF71EFF1E
:1053200008212846FEF77EF808B1012400E0002499
:10533000002210212846FEF77AF8FFF70FFF2046DB
:1053400070BD0000000C014010B54FF4E15304683B
:105350005A429C4201DD036002E0944200DA02609E
:105360000868984201DD0B6010BD9042FCDA0A60CB
:1053700010BD00002DE9F0410D461B4C06004FF416
:1053800000514FF4805705D501222046FEF74FF813
:10539000002204E000222046FEF749F801223946A7
:1053A0002046FEF744F8304601F0A6FC0F4E316867
:1053B00008644FF480414F00002D05DA0122204699
:1053C000FEF735F8002204E000222046FEF72FF811
:1053D000012239462046FEF72AF8284601F08CFCC7
:1053E00031684863BDE8F081000C0140C002002034
:1053F0007CB514460D4606466B46062243216820BE
:1054000000F068F800280BD1BDF8001049BA3180CF
:10541000BDF8021049BA2980BDF8041049BA2180AC
:105420007CBD10B5FFF7A0FE80216B2000F0C1F815
:105430006420FDF7F5FE00216B2000F0BAF8032090
:1054400000F083F8002000F07BF8642000F09AF868
:105450000021382000F0ADF800216A2000F0A9F802
:105460000021232000F0A5F88021372000F0A1F8CA
:10547000752000F011F8682801D0012010BD01212D
:105480006B2000F096F800216C2000F092F8642068
:1054900000F078F8002010BD10B50446FFF7F8FEC4
:1054A000D020FFF7C7FEFFF72BFF2046FFF7C2FE15
:1054B000FFF726FFFFF7ECFED120FFF7BBFEFFF75B
:1054C0001FFF0020FFF78AFE0446FFF701FF20467A
:1054D00010BD00002DE9F0411D4614460F4606465A
:1054E000FFF7D6FE7006000EFFF7A4FEFFF708FFD9
:1054F00020B1FFF7EDFE0120BDE8F0813846FFF74F
:1055000099FEFFF7FDFEFFF7C3FE012000EB46000A
:10551000C0B2FFF78FFEFFF7F3FE09E0012C0DD0BC
:105520005FF00100FFF75AFE641E05F8010BE4B2BC
:10553000002CF3D1FFF7CCFE0020DDE70020F1E7DF
:10554000C006010E1C2000F034B8C006010E1B205E
:1055500000F02FB8BC2801D3012110E0622801D34C
:1055600002210CE02A2801D3032108E0142801D3EA
:10557000042104E00A2801D3052100E006211A20B5
:1055800000F017B810B504464FF47A70844201D980
:10559000044602E0042C00D20424B0FBF4F0401EC8
:1055A000C1B2192000F005F86008BDE81040FFF70F
:1055B000D1BF70B50C460546FFF76AFED020FFF755
:1055C00039FEFFF79DFE50B92846FFF733FEFFF77F
:1055D00097FE2046FFF72EFEFFF792FE18B1FFF769
:1055E00077FE012070BDFFF773FE002070BD2DE92E
:1055F000F0411E4615460F460446FFF749FE600679
:10560000000EFFF717FEFFF77BFE60B93846FFF785
:1056100011FEFFF775FE00240CE0305DFFF70AFE77
:10562000FFF76EFE20B1FFF753FE0120BDE8F081C9
:10563000641CE4B2AC42F0D3FFF74AFE0020F5E769
:105640000D4808B5416941F00101416140690022FE
:1056500000F00100009005210C20FEF7F3F80C206B
:10566000FEF7E2F8002205210D20FEF7EBF8BDE879
:1056700008400D20FEF7D8B80010024010B50E4AC1
:1056800000210E4803F05AFE0D4C0B4A0021206009
:1056900024320C4803F052FE074A60604832002171
:1056A000094803F04BFE044AA0606C320021074811
:1056B00003F044FEE06010BDBCDA0008116200088F
:1056C000D8000020692B00085F2B0008752E000809
:1056D0002DE9F04186B000242948009401940294F9
:1056E0000394816941F010018161816901F0100129
:1056F0000491816941F020018161816901F02001FB
:105700000491816941F004018161816901F0040122
:105710000491816941F0080181618069194F00F0AD
:1057200008000490002208213846FDF780FEDFF8CB
:1057300058804FF21806002231464046FDF777FEAA
:1057400008200125CDE900050320CDE90240694686
:105750003846FDF777FD0220CDE90240CDE900652E
:1057600069464046FDF76EFD202000900748CDE9D0
:10577000010569464046FDF765FD06B0BDE8F081CC
:105780000010024000080140000C01400000211000
:105790000D4810B50B4901600C49416000214FF4E0
:1057A00080428160C0E9031241618161C16101628F
:1057B000FDF748FE002803D0BDE81040FDF7ACBB64
:1057C00010BD0000005400406C020020A0860100C3
:1057D00010B596B0002413941C2168461494FBF76E
:1057E00000F8202107A8FAF7FCFF34483249C0E945
:1057F000001441F61F41C0E9024104614461846123
:10580000FEF727FF08B1FDF787FB139413A92B4878
:105810001494FEF7F5FA08B1FDF77EFB60200090C6
:105820004FF4E150CDE9010403940494059400225F
:10583000694622480694FEF7A6FE08B1FDF76CFB08
:105840000C2269461D480194FEF79DFE08B1FDF744
:1058500063FB0794089409944FF400500A94CDE92F
:105860000B4007A915480E94FEF7A0FA08B1FDF702
:1058700053FB012010900F94119404220FA912944D
:105880000E48FEF70BFD08B1FDF746FB002205218F
:105890001B20FDF7D7FF1B20FDF7C6FF00220521C7
:1058A0001920FDF7CFFF1920FDF7BEFF0348FEF7D3
:1058B0003BFE16B010BD0000002C0140C0020020CD
:1058C00010B58CB024216846FAF78BFF00241548E8
:1058D00009944FF080410A94C0E900144FF6FF711B
:1058E000C0E90241046184610320CDE90004012084
:1058F000CDE902040494CDE90540079469460948BE
:105900000894FEF795FB08B1FDF706FB099409A979
:1059100004480A94FEF774FA002801D0FDF7FCFA57
:105920000CB010BD0803002010B586B00024174845
:105930000094019402940394049413490594016023
:1059400040F2CF21C0E9011440F2E731C0E903146D
:105950008461FEF789FA08B1FDF7DEFA4FF4805052
:10596000009069460948FEF7F5FA08B1FDF7D4FA48
:10597000049404A905480594FEF742FA002801D0D2
:10598000FDF7CAFA06B010BD000400405003002025
:1059900010B58CB024216846FAF723FF002416487E
:1059A000099414490A94C0E900144FF6FF71C0E944
:1059B0000241046184610320CDE900040120CDE9A6
:1059C00002040494CDE90540079469460A48089406
:1059D000FEF72EFB08B1FDF79FFA099409A90648C6
:1059E0000A94FEF70DFA002801D0FDF795FA0CB0E5
:1059F00010BD000000080040980300200C4810B5BE
:105A00000A4901604FF4E1314160002181600C22BC
:105A1000C160C0E904128161C161FFF7D5F80028B7
:105A200003D0BDE81040FDF777BA10BD0048004034
:105A3000E0030020FEE7FEE770B5002404F1B000AB
:105A4000C0B200F08DF8002000F08AF8102000F0BD
:105A500087F80025002000F095F86D1CEDB2802D30
:105A6000F8D3641CE4B2082CE8D370BD10B5C8208C
:105A7000FDF7D6FBBDE8104001F018B810B504469C
:105A8000B031C8B200F06CF8102040EA141000F0F9
:105A900067F804F00F00BDE8104000F061B80000A6
:105AA0002DE9F041203A00240D468046D6B27F28E9
:105AB00003D900208D1C8046EDB2102B29460FD053
:105AC000FFF7DCFF164906EB460001EB4005285DB9
:105AD00000F058F8641CE4B2062CF8D3BDE8F0815D
